:020000040800F2
:1000000000000220CD490008154A0008154A0008E2
:10001000154A0008154A0008154A000800000000AB
:10002000000000000000000000000000154A000869
:10003000154A000800000000154A0008154A00088B
:1000400000000000000000000000000000000000B0
:1000500000000000000000000000000000000000A0
:100060000000000000000000000000000000000090
:100070000000000000000000000000000000000080
:100080000000000000000000000000000000000070
:100090000000000000000000000000000000000060
:1000A0000000000000000000000000000000000050
:1000B0000000000000000000000000000000000040
:1000C0000000000000000000000000000000000030
:1000D0000000000000000000000000000000000020
:1000E0000000000000000000000000000000000010
:1000F0000000000000000000000000000000000000
:1001000000000000000000000000000000000000EF
:1001100000000000000000000000000000000000DF
:1001200000000000000000000000000000000000CF
:1001300000000000000000000000000000000000BF
:1001400000000000000000000000000000000000AF
:10015000000000000000000000000000000000009F
:10016000000000000000000000000000000000008F
:10017000000000000000000000000000000000007F
:08018000000000000000000077
:100188000348044B834202D0034B03B1184770471E
:1001980040080020400800200000000005480649EB
:1001A8000B1AD90F01EBA301491002D0034B03B17D
:1001B8001847704740080020400800200000000051
:1001C80010B5064C237843B9FFF7DAFF044B13B197
:1001D8000448AFF300800123237010BD40080020BD
:1001E800000000002C4A000808B5044B1BB1044964
:1001F8000448AFF30080BDE80840CFE700000000E6
:10020800440800202C4A0008002301461A461846D4
:1002180000F04ABC014B1868704700BF000000207E
:1002280008B50021044600F073FC044B1868C36B42
:1002380003B19847204600F037FE00BF084F00087A
:1002480038B5084B084D5B1B9C1007D0043B1D4478
:10025800013C55F804399847002CF9D1BDE83840DD
:1002680004F0E6BB184F0008144F000870B50D4E97
:100278000D4D761BB61006D0002455F8043B01340A
:100288009847A642F9D1094E094D761B04F0CAFBDE
:10029800B61006D0002455F8043B01349847A6420E
:1002A800F9D170BD0C4F00080C4F0008144F00081E
:1002B8000C4F0008024B0146186800F00BB800BF4D
:1002C80000000020024B0146186800F0C9BC00BFBE
:1002D800000000202DE9F04F01F10B06162E83B027
:1002E800044624D8102900F2BA8000F089FB1026B1
:1002F80018220220B74F3A44A2F1080153688B42F2
:1003080000F0BA805A68D96822F003021A449D683E
:10031800E9608D60516841F001012046516003F1A8
:10032800080500F06FFB284603B0BDE8F08F36F0F3
:10033800070600F19480B14200F2918000F060FB62
:10034800B6F5FC7FC0F09681730A00F08F80042B0D
:1003580000F26B81B30903F1390003F1380CC300D3
:100368009C4F3B44A3F108055B689D4206D10CE015
:10037800002980F22B81DB689D4206D05A6822F062
:100388000302911B0F29F3DD60463D69DFF848C27F
:1003980065457CD06A6822F00302931B0F2B00F39B
:1003A8007781002BC7E904CC80F26881B2F5007F21
:1003B80080F01681D308796801334FEA521E012272
:1003C80002FA0EF20A4357F833E0C5F808E007EBE3
:1003D800C3010839E9607A6047F83350CEF80C5009
:1003E800831001219940914257D8114206D120F03B
:1003F80003004900114200F10400FAD007EBC009DC
:100408004D468646D5F80C80454508D119E1002BA4
:1004180080F22081D8F80C80454500F01281D8F888
:10042800042022F00302931B0F2BF0DD2046D8E9AD
:10043800025408EB060146F00106C8F80460EC60B7
:10044800A56043F00104C7E90411C1E902CC4C607E
:1004580048F8023000F0D6FA08F1080502E00C234B
:1004680023600025284603B0BDE8F08F4FF40073E1
:1004780040204FF03F0C73E7D3689A4208BF023020
:100488007FF440AF3D69DFF850C1654582D17A6895
:100498008310012199409142A7D9BD686B6823F068
:1004A8000308464503D8A8EB06030F2B7EDCDFF8CC
:1004B8002C91D7F80824D9F800300132334405EBE1
:1004C800080A00F02F8103F580530F3323F47F6B64
:1004D8002BF00F0B5946204600F0BAFA411C024691
:1004E80000F0EF80824500F2EA80D9F80410594400
:1004F800C9F804100B4600F04B81D7F808140131F5
:100508001BBFA2EB0A0A5344C7F80824C9F80430F1
:1005180012F0070300F01281C3F108010A44C3F581
:10052800805193440831A1EB0B01C1F30B0A5146EA
:1005380020460192009300F08BFA421CDDE900325C
:1005480000F04B81831A03EB0A0BD9F80400BA6058
:100558004BF001030AEB0001BD425360C9F80410D7
:1005680000F02281B8F10F0F40F220816B68A8F1EA
:100578000C0020F0070003F0010303436B604FF009
:10058800050C2B180F28C3E901CC00F22D81536804
:100598001546D9F82C208A42D9F8302038BFC9F836
:1005A8002C108A4238BFC9F830108CE0AA1943F0E1
:1005B800010346F001066E602046BA60536000F001
:1005C80021FA0835284603B0BDE8F08FD9681A44E7
:1005D8009DE600BF3004002038040020E418002005
:1005E800B2F5206F4FEA522363D3142B00F2B88080
:1005F80003F15C01C9005B3307EB010E7958AEF1DA
:10060800080E8E4500F091804B6823F00303934257
:1006180002D989688E45F7D1D1F80CE07A68C5E926
:10062800021ECEF80850CD60DAE6142B59D9542BA7
:1006380000F29E80330B03F16F0003F16E0CC300D0
:100648008EE60EF1010E1EF0030F05F108057FF48A
:10065800D9AE51E0424445465368D8F80C1043F0EF
:100668000103536055F8083F2046D9608B6000F0BD
:10067800C9F9F7E6F00806F108023BE62A442046E5
:10068800536843F001035360083500F0BBF9E9E60D
:10069800A919204646F0010643F001046E60C7E937
:1006A8000411C1E902CC4C60AB5000F0ABF908353D
:1006B800D8E6930903F13901C90038339CE7BD42F4
:1006C80060D0BD686B6823F0030B5E45ABEB060397
:1006D80002D80F2B3FF76AAF204600F093F90025A8
:1006E800C0E603F15C0003F15B0CC30038E659F87F
:1006F80008394B4540F0968010F0030F00F1FF30A9
:10070800F5D17B6823EA01037B60490099423FF6F3
:10071800C4AE19B9C1E649000EF1040E1942FAD067
:1007280070466BE603F1100BD4E69A104FF00108FF
:100738007B6808FA02F21A437A6070E702EB0B0151
:100748004942C1F30B0A514620460193009200F03A
:100758007FF9431CDDE900237FF4F4AE9A46F4E602
:10076800542B26D8130B03F16F01C9006E3343E7EE
:10077800B3F5AA7F26D8F30B03F1780003F1770CC1
:10078800C300EDE5D9F804305B44C9F80430B4E699
:10079800CAF30B0000287FF4B0AEBD6808EB0B036A
:1007A80043F001036B60F4E61546F2E6012353605B
:1007B80092E7B3F5AA7F21D8D30B03F17801C900DA
:1007C800773319E740F25452934221D8B30C03F11E
:1007D8007D0003F17C0CC300C2E5083B9B44ABEBF6
:1007E800020B4FF0000AB0E605F10801204600F0C0
:1007F80037FABD68D9F804106B68CAE640F254515C
:100808008B420BD8930C03F17D01C9007C33F3E6CE
:100818004FF47E737F204FF07E0CA1E54FF47E717C
:100828007E23E9E67B6870E7844641EA000313F01B
:1008380003036DD1403A41D351F8043B40F8043BDF
:1008480051F8043B40F8043B51F8043B40F8043BA2
:1008580051F8043B40F8043B51F8043B40F8043B92
:1008680051F8043B40F8043B51F8043B40F8043B82
:1008780051F8043B40F8043B51F8043B40F8043B72
:1008880051F8043B40F8043B51F8043B40F8043B62
:1008980051F8043B40F8043B51F8043B40F8043B52
:1008A80051F8043B40F8043B51F8043B40F8043B42
:1008B80051F8043B40F8043B403ABDD2303211D3E2
:1008C80051F8043B40F8043B51F8043B40F8043B22
:1008D80051F8043B40F8043B51F8043B40F8043B12
:1008E800103AEDD20C3205D351F8043B40F8043BE2
:1008F800043AF9D2043208D0D2071CBF11F8013BE0
:1009080000F8013B01D30B8803806046704700BFA5
:10091800082A13D38B078DD010F003038AD0C3F1B4
:100928000403D21ADB071CBF11F8013B00F8013B96
:1009380080D331F8023B20F8023B7BE7043AD9D355
:10094800013A11F8013B00F8013BF9D20B7803702A
:100958004B7843708B78837060467047830730B557
:1009680048D0541E002A3FD0CAB2034601E0013CD9
:100978003AD303F8012B9D07F9D1032C2DD9CDB219
:1009880045EA05250F2C45EA054536D9A4F110029C
:1009980022F00F0C03F1200EE6444FEA121C03F17B
:1009A800100242E9045542E9025510327245F8D165
:1009B8000CF1010214F00C0F03EB021204F00F0CFF
:1009C80013D0ACF1040323F003030433134442F8B7
:1009D800045B9342FBD10CF003042CB1CAB21C4453
:1009E80003F8012B9C42FBD130BD64461346002C12
:1009F800F4D1F9E703461446BFE71A46A446E0E7F0
:100A0800704700BF704700BF024B1B680022C3E954
:100A18002A027047000000200A4A0B4910B41468E3
:100A28000A4AD4E92A0300FB02F201FB0322A0FBD5
:100A38000101431C42EB0100C4E92A3020F00040C8
:100A480010BC7047000000202D7F954C2DF45158A4
:100A580038B5074D0022044608462A6003F076FFA1
:100A6800431C00D038BD2B68002BFBD0236038BD59
:100A78001819002010B50B4B84B0044600221868E2
:100A8800694600F0F3F9002806DBDDE900010CB146
:100A9800C4E9000104B010BD4FF0FF304FF0FF3142
:100AA800F5E700BF0000002070B4184C2568D5F8A1
:100AB80048411CB365681F2D25DC38B9AB1C0135CE
:100AC800656044F82310002070BC704704EB850C67
:100AD8000228CCF88820D4F888614FF0010202FA85
:100AE80005F246EA0206C4F88861CCF80831E5D177
:100AF800D4F88C311343C4F88C31DFE705F5A674BC
:100B0800C5F84841D6E74FF0FF30DDE7084F000849
:100B18002DE9F04F294B1F6883B0D7F84861019041
:100B2800B6B18B464FF001084FF000097468651E96
:100B38000ED4013406EB8404BBF1000F0BD0D4F8BB
:100B480000315B4507D0013D6B1CA4F10404F3D1CF
:100B580003B0BDE8F08F73682268013BAB420CBF5D
:100B68007560C4F80090002AEDD0D6F88801D6F850
:100B780004A008FA05F101420BD19047726852456A
:100B880012D1D7F84831B342DDD01E46002ECDD160
:100B9800DEE7D6F88C0101420BD1D4F88010019819
:100BA800904772685245ECD0D7F84861002EBDD105
:100BB800CEE7D4F880009047E0E700BF084F000870
:100BC800F8B5244F0C460646FFF71AFFBA68556871
:100BD800C4F57E630F3325F003052B4423F47F63AC
:100BE80023F00F03A3F58054B4F5805F07DB0021E1
:100BF8003046FFF72DFFBB682B44984204D030469F
:100C0800FFF700FF0020F8BD61423046FFF720FFE4
:100C180001300DD0104ABB682D1B45F001055D6001
:100C2800136830461B1B1360FFF7ECFE0120F8BD6C
:100C380000213046FFF70CFFBA68831A0F2BDEDD60
:100C480043F001035360054B03491B68C01A086051
:100C5800D5E700BF30040020E8180020380800203D
:100C6800002961D0F8B50C460646FFF7C9FE54F8CE
:100C7800042C7B4FA4F1080522F0010105EB010CBF
:100C8800B868DCF80430604523F0030300F08B807B
:100C9800D207CCF8043032D454F8082CAD1A1144D9
:100CA800AA6807F1080082426AD00CEB0304D4F862
:100CB80004E0EC68D4601EF0010FA26000F0978099
:100CC80041F001036B60CCF80010B1F5007F35D21C
:100CD8007A68CB08480901210133814011437960C2
:100CE80007EBC30257F83310083AC5E9021247F870
:100CF8003350CD603046BDE8F840FFF783BE0CEBBB
:100D080003025268D00710D4194407F10800DCF830
:100D18000830834273D0DCF80C20DA60936041F02D
:100D280001036B606950D0E7704741F00103B1F5EA
:100D3800007F44F8043CCCF80010C9D3B1F5206F0B
:100D48004FEA512348D28B0903F1390003F13802E5
:100D5800C300F818FB580838984259D05A6822F04E
:100D680003028A4202D99B689842F7D1D868C5E93C
:100D780002308560DD603046BDE8F840FFF742BECE
:100D88000CEB03025268D20763D40B44DCE902126D
:100D9800CA60916043F001026A603046EB50BDE8DA
:100DA800F840FFF72FBE0B44D10707D454F8082C9E
:100DB800AD1A1344D5E90212CA60916043F00102EA
:100DC8006A60284ABD6012689A4293D8264B30461A
:100DD8001968FFF7F5FE8DE7142B0AD9542B1FD895
:100DE8000B0B03F16F0003F16E02C300B1E7194466
:100DF8008DE703F15C0003F15B02C300A9E741F052
:100E08000103C7E90455C5E902006B60695071E741
:100E180079689210012404FA02F20A437A60A6E77C
:100E2800B3F5AA7F06D8CB0B03F1780003F177025C
:100E3800C3008EE740F25452934206D88B0C03F15C
:100E48007D0003F17C02C30083E74FF47E737E22AA
:100E58007FE741F001036B60CCF800104AE700BF60
:100E6800300400203C080020E418002070B50C462F
:100E7800084D03460026204611461C462E6000F009
:100E88000BF8431C00D070BD2B68002BFBD02360EF
:100E980070BD00BF18190020024B58221A604FF08D
:100EA800FF30704718190020FEE700BF30B5ADF5D8
:100EB800515D89B000201C46FFF7DCFDFFF7A4FD5B
:100EC800402108A802F064FB002208A90DF58C60F7
:100ED80000F066FD0DF58C6000F0AAFD402108A821
:100EE80002F056FB002208A90DF5A35000F06AFD98
:100EF8002021684602F04CFB694618A800F098FBD0
:100F080018A800F07BFAE279A379A17BE07B03EBD8
:100F18000223627902EB0323227901EB0020617B33
:100F280002EB0322E37801EB0021207B03EB022292
:100F3800A37800EB0121E07A03EB0223A27A00EB0D
:100F4800012002EB00206278424902EB0323227859
:100F5800521802EB0322637A189203EB0022237AD9
:100F68000DF511555B1803EB02232035CDF86034DD
:100F780002F066FF18A90DF58C62284600F07CFD8A
:100F880002F066FF284600F065FD0DF5A3522946DC
:100F9800284600F03DFD284600F028FDDDF86024D5
:100FA8002D4B286813445942C9B2DAB258BF4A4295
:100FB800002BB8BFFF331B125942C9B22270DAB2F4
:100FC80058BF4A42002BB8BFFF331B125942C9B25F
:100FD8006270DAB258BF4A42A2701A1E1E4B4FF016
:100FE80000010344B8BFFF32C81AC0B24FEA222238
:100FF800E270DAB258BF4242002BB8BFFF331B126F
:1010080021716171A171E1715942C9B22272DAB2DA
:1010180058BF4A42002BB8BFFF331B125942C9B20E
:101028006272DAB258BF4A42002BB8BFFF330025BC
:101038001B12A272E37225736573A573E5732246CA
:101048001021722002F082FD28460DF5515D09B08D
:1010580030BD00BFF6FF00FC0A00FF0308B5002002
:10106800FFF708FDFFF7D0FC0A4901F5206000F002
:10107800D7FD02F041FE02F081FE02F0BFFE02F051
:1010880017FC054A1021012002F044FC02F062FC22
:10109800FCE700BF5C080020B50E00082DE9F04F02
:1010A80085B008230746039346F2F7444FF000083B
:1010B8004FF08009264B08F1020A03EB8A03002649
:1010C800029309EB060308F10102B34201922BD9FE
:1010D80006F18042013A03EB090607EB830A07EBA6
:1010E800820B07EB8605DAF8001081FB040100F09B
:1010F80069FD5BF8043F1B1A4AF8043BDBF8003033
:1011080055451844CBF80000EDD1FF2E0ED8029BB0
:10111800DDF8048053F8044B029309EB060308F149
:101128000102B3420192D3D81E46F0E7039B013B6C
:101138004FEA5909039307D008F10203044ADDF87E
:10114800048052F82340B5E705B0BDE8F08F00BF32
:10115800484A00082DE9F04F85B008230393031F80
:1011680001904FF4807A4FF001090293264B0AF15F
:101178008047013F03EB8707002257F8044902EB39
:10118800090696420AF1FF3AC4F100043AD9019BD4
:1011980002F18042013A03EB820803EB860B029BC3
:1011A80003EB860558F8041FDBF800300B44C8F839
:1011B80000305BF8040B091A4BF8041C81FB04018E
:1011C80000F000FD45454BF8040CEBD106EB090295
:1011D800FF2AD2D9039B013B4FEA49090393C5D1A2
:1011E800DDE901344AF2FA3503F57F7754F8041F34
:1011F80081FB050100F0E6FCA7422060F6D105B0AE
:10120800BDE8F08F3246E3E7484A00084B1CC31A92
:10121800022B70B516461ED90B6803604B684360F5
:101228008B688360CB68C3600B6903614B6943615A
:101238008B698361CB69C36100F1200400F5A46563
:101248003146204604F5A07400F0A6FAA54206F53A
:101258008066F5D170BD4B1E421E01F11F0413F8C4
:10126800011F02F8011F9C42F9D1E5E7F8B50546D0
:10127800481C281A02286FD90868286048686860DE
:101288008868A860C868E860086928614869686172
:101298008869A861C969E961E91A1F31022968D911
:1012A80019682962596869629968A962D968E96206
:1012B80019692963596969639969A963DB69EB63EA
:1012C800AB1A3F33022B62D913682B6453686B64E3
:1012D8009368AB64D368EB6413692B6553696B65DA
:1012E8009369AB65D369EB65136A2B66536A6B66C2
:1012F800936AAB66D36AEB66136B2B67536B6B67AA
:10130800936BAB67D36BEB67079F05F1800605F519
:10131800007439463046603600F0F8F9B44207F5F3
:101328008067F6D1089E05F560773146204660341F
:1013380000F0ECF9BC4206F58066F6D1069E05F58C
:1013480020653146204604F5D07400F047FAAC42D7
:1013580006F58066F5D1F8BD481E6C1E1F3110F8E1
:10136800016F04F8016F8142F9D1E91A1F3102298E
:1013780096D8591E05F11F001F3311F8014F00F8C8
:10138800014F8B42F9D1AB1A3F33022B9CD8531E25
:1013980005F13F013F3213F8010F01F8010F9342A5
:1013A800F9D1B1E738B5041F00F57F7554F8040F7B
:1013B80000F018FCAC422060F8D138BD38B5041FE5
:1013C80000F57F7554F8040F00F018FCAC4220605B
:1013D800F8D138BD00B5A1F1040CA2F1040E021F2A
:1013E80001F57F705CF8043F5EF8041F84450B44E8
:1013F80042F8043FF6D15DF804FB00BFFFF74EBE8C
:10140800FFF7A8BEF8B50C1F161F051F01F57F775B
:1014180054F8041F56F8040F81FB000100F0D2FBBA
:10142800BC4245F8040FF3D1F8BD00BFF8B5151F4D
:101438000C46061F02F57F7755F8041F204600F07A
:10144800E5FBBD4246F8040F04F10404F4D1F8BDED
:10145800F0B5ADF5557D0746684600F063FC6A4671
:101468004FF4527101A801F0A5FE264DD3AE01AA92
:10147800002401E0964218D09378507811781B0424
:1014880043EA00230B43C3F31603AB429CBF47F860
:1014980024300134B4F5807F02F10302EAD16846B2
:1014A80001F004FF0DF5557DF0BD164D2BAE6A46D3
:1014B800A82101A801F07EFEC4F5807E01AA0021C2
:1014C80001E0964214D0937892F801C010781B047A
:1014D80043EA0C230343C3F31603AB4204EB0100B6
:1014E8009CBF013147F820308E4502F10302E8D84D
:1014F8000C44FF2CDBD9684601F0D8FE0DF5557D6C
:10150800F0BD00BF00E07F002DE9F043A5B005461F
:1015180001A800F021FC02A801AA882101F012FF0D
:1015280024AC02A8002610F8012B02F00F0101EBF1
:10153800810301EBC30303EB83039B0A03EB8303E0
:10154800C1F1020C0F2906F1010763444FEA121298
:101558000CD00F2A45F8263065D0B7F5807F64D1C6
:1015680001A801F06BFF25B0BDE8F0830F2A0ED06B
:1015780002EB820302EBC30303EB83039B0A03EB37
:101588008303C2F102021A4445F826200136B6F553
:10159800807FE5D08442C6D108E00F2A48F8203081
:1015A8003DD077453DD87644FF2ED9D802A801AA68
:1015B800882101F0C7FE05EB8608C6F580770DF196
:1015C800080C00201CF8012B02F00F0101EB81032D
:1015D80001EBC30303EB83039B0A03EB8303C1F112
:1015E80002090F2900F1010E4B444FEA1212D4D11F
:1015F8000F2A0ED002EB820302EBC30303EB830333
:101608009B0A03EB8303C2F10202134448F820301B
:101618000130874201D96445D4D18646C3E7704674
:10162800F7E77046E6E73E46B1E73E46A0E700BF6B
:10163800F0B5A5B00C46074601A801F03BFE2146CF
:10164800202201A801F04AFE01A801F04DFE01AADE
:10165800882102A801F076FE9DF809309DF808500F
:101668009DF80C6045EA03259DF80A3045EA0345D4
:101678009DF80B3045EA03659DF80D3046EA0326D0
:101688009DF80E3046EA03469DF80F304FF480620D
:101698000021384646EA0366D924FFF75FF94FF080
:1016A800080C10E001F04EFE9DF808309C424FF007
:1016B800010211D202F190036B4402F1010C13F8FC
:1016C800883CA34209D9BCF1870F01AA4FF08801D1
:1016D80002A8E7D86246EDE7944657F8231047F882
:1016E800241005F0010252000134C2F101026D0814
:1016F800B4F5807F45EAC67547F823204FEA5606B9
:10170800E1D101A801F09AFE25B0F0BD2DE9F0471E
:1017180001F5806ED1E906630A69D1F80CC08D68BD
:101728004F684C6951F8208BC2F10202CCF1020AD1
:10173800C3F10203C5F10205D2B2EDB2C7F1020C42
:101748005FFA8AFAC6F102065FFA83F912015FFAB4
:101758008CF7C4F10204F6B24FEA851C42EA4A0249
:101768004FEA4913E4B24CEAC70C42EA9502C8F1C1
:10177800020743EA86034CEA070C42EAC41243EA2A
:1017880054038E4580F800C04270837000F1030056
:10179800C0D1BDE8F08700BF01F580620B68037017
:1017A8004B68D1F800C09B0043EA2C2343708B6838
:1017B800D1F804C01B0143EAAC138370CB68D1F89D
:1017C80008C09B0143EA2C13C370CB6810319B10EF
:1017D8009142037100F10500E0D170472DE9F04F07
:1017E80000F5D07ED1E90146D1E90457D1F800804F
:1017F800D1F80CC0D1E90623C4F58054C8F5805A45
:101808004FEA4419CCF5805CC5F5805549EA1A2998
:10181800C2F5805280F800A080F80190C6F5805685
:101828004FEACC194FEA051AC7F58057C3F580531C
:101838004FEA86084AEA5C2A49EA96164FEA5C09A2
:101848004FEA821C4FEAD40B48EAD4287C004CEAC1
:10185800D7174FEAC30C80F802B044EA15344FEAB0
:10186800151B5B0995084CEA922280F807B080F8AE
:101878000380067180F8059080F806A0047247720C
:101888008572C27203730D30864501F12001A9D11A
:10189800BDE8F08F30B501F5107C0C7804604B780A
:1018A80044EA032404608B7844EA0344C4F3110433
:1018B80004608A7892084260CB7842EA83124260D8
:1018C8000B7942EA83320931C2F31102426011F8FE
:1018D800053C1B09836011F8045C103043EA0513CA
:1018E80040F8083C11F8035C43EA0533C3F31103DD
:1018F80040F8083C11F8035CAD0940F8045C11F8A5
:1019080002EC45EA8E0540F8045C11F801EC45EA62
:101918008E25C4F50034C2F50032C3F50033C5F591
:1019280000358C4540E9032340F8104C40F8045C2E
:10193800B3D130BD10B5ADF52C7D044601A800F03B
:101948000BFA01AA4FF42A7102A801F0FBFC01A8C6
:1019580001F074FD02A92046FFF79CFF0DF52C7DD0
:1019680010BD00BF2DE9F041884600F580560027DC
:10197800A6F580553C4622462846414605F5806531
:10198800FFF766FD0134AE42A4B2F4D107F58077C3
:10199800BFB2B7F5806F06F58056E9D1BDE8F08192
:1019A800F8B505460E46144600F5805722462846E7
:1019B800314605F58065FFF7A7FD0134BD42A4B2A5
:1019C800F4D1F8BD9200F8B505460E4694B200F57C
:1019D800805722462846314605F58065FFF7AAFF5D
:1019E8000134BD42A4B2F4D1F8BD00BF10B504461D
:1019F800FFF7D8FC04F58060FFF7D4FC04F500601D
:101A0800FFF7D0FC04F54060BDE81040FFF7CABC02
:101A1800F8B507460E46154600242A193119381913
:101A280004F58064FFF7D6FCB4F5805FF5D1F8BD06
:101A380010B50446FFF7E2FC04F58060FFF7DEFC12
:101A480004F50060FFF7DAFC04F54060BDE81040DB
:101A5800FFF7D4BC10B50446FFF7D2FC04F580604C
:101A6800FFF7CEFC04F50060FFF7CAFC04F5406000
:101A7800BDE81040FFF7C4BCF8B507460E4615464A
:101A880000242A193819314604F58064FFF7BAFC96
:101A9800B4F5805FF5D1F8BDF0B5ADF2044D05465B
:101AA8000F461646FFF7AEFC4FF480643219391919
:101AB8006846FFF7A7FC04F580646A46294628466D
:101AC800FFF788FCB4F5805FF0D10DF2044DF0BD4E
:101AD800F8B5044616460D4600F5805729462046B7
:101AE800324604F58064FFF7D7FFBC4205F5805500
:101AF800F4D1F8BDF8B505460E46144600F58057F2
:101B080022462846314605F58065FFF7FDFC01347D
:101B1800BD42A4B2F4D1F8BD10B50446FFF742FCAB
:101B280004F58060FFF73EFC04F50060FFF73AFC1F
:101B380004F54060BDE81040FFF734BC10B504461A
:101B4800FFF73CFC04F58060FFF738FC04F5006003
:101B5800FFF734FC04F54060BDE81040FFF72EBCE9
:101B6800F8B507460E46154600242A1931193819C2
:101B780004F58064FFF72EFCB4F5805FF5D1F8BD5D
:101B880010B50446FFF73CFC04F58060FFF738FC0D
:101B980004F50060FFF734FC04F54060BDE8104030
:101BA800FFF72EBCF8B507460E46154600242A193D
:101BB8003119381904F58064FFF738FCB4F5805FF3
:101BC800F5D1F8BDC0EBC002034610B400EB822289
:101BD800034C084603EB4232C2FB043010BC70478A
:101BE800FF1F80FF00F58003DB15C3EB432203EBE7
:101BF8008222C3EB42331844704700BF024B03EA0A
:101C0800E0731844704700BF01E07F0001F6FF72DF
:101C180022F4FF5323F01F03C91A016050137047C1
:101C28002DE9F041ADF5104DB4B034AC264605466B
:101C38000F4614A8202101F0ABFC14AA40F204437B
:101C480026F8603D10462223802101F0FBFB0DF5AC
:101C5800A14014A950300DF50358FFF783FE08F191
:101C68001008314620460022FFF79AFE31464046CA
:101C78000422FFF73FFF0DF5865021464FF48052AE
:101C88001030FEF7D1FD0DF586501030FFF7D0FE6D
:101C98000DF586520DF5A1410DF543501032503126
:101CA8001030FFF715FF0DF543501030FFF734FFE4
:101CB8000DF543501030FFF763FF0DF54351103118
:101CC80042460846FFF74CFF0DF543501030FFF72A
:101CD80035FF0DF581460DF5435250361032314629
:101CE8001046FFF75FFF0DF5435214A9284610323E
:101CF800FFF78CFA2A4604A84FF4A463402101F0A8
:101D0800A1FB3846CDE90064CDF808802CAB04AAC5
:101D180014A9FFF7ABFA00200DF5104D34B0BDE85B
:101D2800F08100BF30B583B0130A04460D468DF824
:101D380005308DF8042001F0F5F9294620462022C7
:101D480001F004FA022201A9204601F0FFF9204619
:101D580001F002FA03B030BD30B583B0130A04466F
:101D68000D468DF805308DF8042001F0A3FA2946B8
:101D78002046402201F0B2FA022201A9204601F0D1
:101D8800ADFA204601F0B0FA03B030BD2DE9F04FAE
:101D9800C1B0026801924268029282680392C268E6
:101DA8000492354A00920269059242690692826954
:101DB8000792C2690892026A0992426A0A92826A82
:101DC8000B92C26A0C92026B0D92426B0E92826B5E
:101DD8003F900F92C26B1092026C1192426C129259
:101DE800826C1392C26C1492026D1592426D2F92FE
:101DF800826D1692C26D1792026E1892426E1992F7
:101E0800826E1A92C26E1B92026F1C92426F1D92D2
:101E1800826F1E92D0E91F921F92D0F884202092E0
:101E2800D0F888202192D0F88C202292D0F89020E7
:101E38002392D0F894202492D0F898202592D0F8B4
:101E48009C202692D0F8A8202792D0E92BA228928D
:101E5800D0F8B4202992D0F8B8202A92D0E928C71F
:101E6800D0F8BC202B92D0F8C0202C92D0F8C430E7
:101E78002D934A46BB4601E0484E0008019B0B994A
:101E880002980C9C0D9EDDF810E0DDF8388083EA9E
:101E98000107159B1E995F404F4087EA0C032F9F4F
:101EA8002E9380EA04037B40534083EA0B050F9985
:101EB800059B2F95039D169C85EA06004B401F9DA8
:101EC8001899279E8EEA08096040DDF85CE0219C9D
:101ED800DDF8808068404B40289D70406340069E36
:101EE800079C89EA0E09DDF840E089EA080983EAD7
:101EF8000508199B229D86EA0E01DDF844E0299E1B
:101F080059401A9B694084EA0E05239C71405D4044
:101F18002A9E089B6540129C75401B9E83EA040E0E
:101F2800249B2B9C8EEA060E8EEA030E8EEA04068C
:101F3800139BDDF824E08EEA03041C9BDDF828E0FF
:101F48005C40259B5C402C9B5C40149B8EEA030EF6
:101F58001D9B8EEA030E269B8EEA030E2D9B89EAB3
:101F68000A098EEA030E4FEA490343EAD07383EA6B
:101F78000E0383EA0B0BCDF8CCB0DDF808B083EA8A
:101F88000B0BCDF8C0B0DDF830B083EA0B0B5F4027
:101F9800CDF8D4B083EA020B430043EAD973634017
:101FA80083EA0C0C3197159FCDF8C8C0DDF804C042
:101FB8000B9ACDF8F0B083EA070B1E9FCDF830B02E
:101FC80083EA0C0C5F40CDF808C083EA020CCDF818
:101FD800D0C03B974B002F9ADDF810C0DDF838B021
:101FE8001F9F43EAD873534083EA0C0C209ACDF81C
:101FF80078C0DDF85CC05A4083EA0B0B83EA0C0C0E
:1020080083EA0A0A15924FEA48032E9ACDF8F8A0F7
:1020180043EAD17353405F40039ADDF834A00D972B
:10202800169FCDF8DCC05A40019283EA0702279F29
:102038003692720083EA070C42EAD572299FCDF8DE
:10204800F4C082EA090282EA070CCDF85CC0DDF828
:1020580040C0229FDDF8649082EA0C0CCDF864C081
:1020680082EA070CCDF8A4C0DDF818C0189F82EAF0
:10207800090982EA0C0C6A0042EAD6725040289A92
:10208800CDF8E4C0424016920F9A4240049280EA8A
:10209800070C219F80EA07022792059A2A9F504041
:1020A8004FEA4E0242EAD47264004A4044EADE74BF
:1020B8000799DDF868E0389083EA0A0A84EA080399
:1020C800594083EA0E0E0B91CDF860E00899DDF8CF
:1020D8008C8083EA070ECDF8A0E0DDF844E082EAC0
:1020E80001041B9983EA0E0E5140CDF8E8E0DDF8B3
:1020F800ACE0059183EA08001299DDF8908082EA45
:102108000E0E82EA0808CDF8A8E082EA010E2F999F
:102118002E9ACDF8ACE057004FEA410E4EEAD27E37
:1021280047EAD1771499139A8EEA060E8EEA0103CC
:1021380025992C9E6F407940129126992D9D8EEA03
:10214800010114910999794022911C997E407A40A5
:102158004F400A9925978EEA01071D9924978EEA20
:1021680005058EEA010ECDF898E0DDF800E0029949
:10217800DEF800707940DEF80470DDF8C0E0079101
:102188008EEA07014FEA1A5E4FEA1B574EEA0B3EEA
:1021980047EA0A3B4FEA5C5A4AEAC92A4FEA5959C0
:1021A80049EACC2C4FEA853949EA96490891B603A1
:1021B8000B99CDF818C046EA9546250745EA11154A
:1021C8004FEA485C09074CEAD02C41EA1411400553
:1021D8001C050C9F0F9540EAD82044EA1238319C20
:1021E800CDF84080120542EA1332FD00E30043EACD
:1021F800577845EA54730D9C0E93159B169DCDF8A0
:102208004480E70C47EA4337DB0C43EA4433179C26
:10221800CDF80CB04FEAD50848EA4478E40844EA17
:10222800457413941E9C019D4FEA440B4BEAD575E7
:102238001B95019D4FEA450B4BEAD47BCDF868B05E
:10224800199C049D4FEA841B4BEA95651C95049DD7
:102258004FEA851B4BEA9465059C01954FEA446B50
:10226800189C4BEAD4154FEA446B059C1F95149DA6
:102278004BEAD41B129CCDF874B04FEA052B4BEAFD
:10228800146BCDF88CB04FEA042B4BEA156B339DD9
:10229800329CCDF878B04FEA854B4BEA943BCDF8A9
:1022A80064B04FEA844B079C4BEA95352AEA0E0B3B
:1022B80084EA0B041895DDF80CB0069D0494089C7C
:1022C80025EA0B0B84EA0B0420EA0A0B05948BEA37
:1022D8000E04DDF808B006942EEA0B0E2BEA060B66
:1022E8008BEA000426EA0000DDF80CB00A9480EAC4
:1022F8000A0008908EEA060A2CEA0500CDF830A0FC
:1023080080EA0B0ACDF81CA0DDF8C0A02AEA09066D
:102318002BEA0A0086EA0C0ACDF82CA00E9EDDF8FE
:1023280068B029EA0C0C80EA090926EA0200CDF80F
:10233800349080EA01098CEA050ACDF83890DDE985
:1023480010C90F9DCDF824A029EA0C0068400F9011
:1023580027EA06005040109022EA0102139821EA69
:102368000801794028EA070782EA080823EA0902EF
:102378001491CDF8588025EA000182EA0C08CDF8BE
:10238800448081EA030820EA030383EA0909034633
:102398000198CDF85480DDF86080CDF84C9087EA3C
:1023A800060A2CEA05021C9E1B9FCDF848A020EACD
:1023B8000B0C8CEA0809DDF864C0DDF89080CDF8D4
:1023C8008090534026EA0702179382EA0C03219370
:1023D800229BDDF8D090369ADDF8DCA0D9064FEACA
:1023E800C86E4EEA531E41EA5815359B22954FEAAE
:1023F8001978950248EA031845EA9A511B0F029189
:1024080043EA09134FEA8A29DDF8A4A0289D2A9CEB
:1024180049EA9259279A4FEACA3C4CEA524CD203ED
:1024280042EA5A424FEA152A4AEA046A240A44EA66
:1024380005641D9D25EA000080EA0B011A91189990
:102448002BEA01008B461E992BEA010B8BEA050B40
:10245800CDF870B021EA050B019D8BEA05051B95A7
:102468001F9D80EA010B25EA0600CDF878B0BB462F
:10247800474019991897239F2BEA010021EA070B77
:102488008BEA050BCDF874B027EA050B8BEA060535
:10249800389E199580EA0705399F2B991F95B00832
:1024A80040EA8775B80840EA867B3A98CDF8A4B028
:1024B8004FEA512B4BEAC0572B97259F2D95269D08
:1024C800460A780E46EAC15640EAC511680E40EA47
:1024D800C7172E9101973B992A963C9E229DF00D95
:1024E80040EA4120CF0D3E992C9047EA46273D9E71
:1024F800880040EA967BB00040EA91700299CDF8D6
:102508000CB021EA080B8BEA050529EA030B8BEAD4
:102518000E0622EA010B8BEA0801DDF888B0239148
:102528002BEA0A0151402591029930962AEA0202C3
:1025380028EA0B084A40229288EA0A0227922CEAE3
:1025480009025A4023EA0E032EEA040E8EEA0C0E04
:1025580024EA0C0C8CEA090CCDF890C083EA040C30
:10256800DDF83890CDF8A0C0DDF810C0DDF8148093
:102578000F9BCDF898E093468CEA0909189ADDF884
:1025880068C007992F9588EA030E89EA0C098EEA34
:10259800020EDDF818C0109A1B9BCDF8C4B08EEA65
:1025A800060E119E89EA05098CEA02055D4081EA5A
:1025B80006031999239A4B4083EA0B043494DDF8F7
:1025C8002080DDF848B0099EDDF874A01C9C229B91
:1025D80088EA0B01DDF84CB0DDF85080554086EAFA
:1025E8000B0B249A179E8BEA0A0BDDF828A08BEABE
:1025F800020B1E9A8AEA080C6140259CDDF854A05B
:102608008CEA020C0B9A8CEA040C1F9C82EA0A02E0
:102618005940DDF858A0269B6240209C5A408AEA1F
:1026280004030C9CDDF884A06340279C634086EA81
:102638000A040D9EDDF8A8A07440289E74402E9EC2
:1026480026EA0A08DDF8B4A088EA0A08CDF8C880A6
:1026580089EA0808CDF8B480DDF8AC90DDF804808C
:1026680028EA0909DDF8A48089EA08098EEA090E32
:10267800CDF8B8E0B04627EA060E2A9E8EEA060E86
:1026880026EA0A062AEA000A8AEA070ACDF8A8A072
:1026980020EA0707704087EA080A07462A9833970E
:1026A8008CEA000885EA0E052C98DDF804C002952E
:1026B8007B40299D2B9F20EA0C067E4027EA050CCB
:1026C800039F25EA07002C9D6840299027EA05000A
:1026D800019F299D7840039F8CEA0707BC46349FD9
:1026E800CDF80CC06A40654677406C40029D4FEAC1
:1026F800470C4CEAD57C189D8CEA040C85EA0C053D
:102708002B950F9D89EA0C09CDF8D09085EA0C0924
:10271800CDF8D490DDF8C090029D89EA0C09CDF877
:10272800E490DDF8149089EA0C0CCDF83CC04FEA2F
:10273800450CDDF868904CEAD77C8CEA030C89EAF2
:102748000C09CDF86090DDF8C89089EA0C09CDF83D
:10275800C090DDF838902E9D89EA0C09CDF8C89014
:10276800DDF8BC9089EA0C09CDF8E090DDF810900E
:102778008BEA000B81EA0A0189EA0C094FEA4B0C43
:102788004CEAD17C8CEA050C119D85EA0C05049570
:10279800319D85EA0C051A95079D85EA0C052C954F
:1027A800199D86EA0C0685EA0C0531953B962D9D08
:1027B8004E0046EADB766E40109D85EA060CCDF8A1
:1027C80004C0DDF88CC0139D8CEA060CCDF840C01F
:1027D800DDF818C08CEA060CCDF88CC0DDF86CC0AA
:1027E8008CEA060CCDF8BCC08EEA060CCDF8E8C021
:1027F8004FEA420C4CEAD87C8CEA07077840DDF8AF
:1028080024C0DDF874E0199085EA0700249D1B9028
:102818008EEA070E7D408CEA070724954FEA4800A8
:102828003797029D1C9FDDF820C040EAD2704540D2
:102838006F40600040EAD37006975B008AEA05079C
:102848001397DDF888A0129F43EAD4740A9B4C4082
:1028580025998CEA05066F408AEA050A83EA040589
:102868000B9BDDF878C0369680EA0B0B614083EA53
:102878000B03079126990B931F9B81EA0B008CEAA7
:102888000401DDF8A8C01C9183EA0B031D938CEAB0
:1028980004032593149B83EA0401299C2A9184EA62
:1028A8000B032693159B2E9C83EA0B0BCDF8A4B043
:1028B800DDF8B4B04FEA4B0C4CEAD47C8CEA080C37
:1028C8006300DDF8588043EADB735A40DDF8CCB08A
:1028D80088EA0C03DDF85C808BEA0C0688EA0204BF
:1028E800DDF80CB0DDF89C802899CDF814905140A3
:1028F8001E910C9981EA0C011F91209981EA0C0123
:1029080088EA0C082D91DDF834C021998BEA020B76
:102918008CEA020C5140009A2E91926889EA0201D1
:10292800DDF800900991D9F80C2009F11001DDF8C3
:102938003C90009189EA02021192019A0499120DC1
:1029480042EA01390A0D0199CDF8089042EA0139A5
:102958000699CDF810904A0D42EACE294FEA5E5EFC
:102968004EEAC12E0799CDF818E0420542EAD12E69
:10297800490541EAD0210B98CDF820E04FEA8B3287
:1029880042EA964E0207CDF828E042EA151E2D07C6
:1029980045EA10152205CDF80C90CDF830E00B95DE
:1029A80042EA13352B9ADDF860E010980D951B0567
:1029B80043EA1434D30043EA5E757346DDF868E0F1
:1029C8000E95DD0045EA5275C30C724643EA4E3354
:1029D800D20C109342EA4033DDF84CE01293199B75
:1029E800B60346EA9B4B4FEADE092C9ED80849EA13
:1029F800437940EA4E73DDF88CE01493720042EAA2
:102A0800DE737246500040EAD67E1B98CDF854E03B
:102A1800820142EA976618961D9EDDF870E01693CB
:102A2800BF0147EA90677206179742EADE171A97BE
:102A38007746780640EAD6171E981997020242EAA6
:102A48001867349A1B974FEA0828309F48EA10689D
:102A5800900440EA9736BF0447EA92371F9A1D96BA
:102A68004FEACC6040EA521E329ECDF87CE04FEA35
:102A7800C26E4EEA5C1CDDF8D4E0CDF878C0320FA7
:102A880042EA0E1C7246100FCDF880C040EA061CC0
:102A980031982F9ECDF884C0820242EA965CB20239
:102AA80042EA90562498CDF88CC0C20342EA5A4CA8
:102AB800269ADDF894E022964FEACA3A4AEA504A42
:102AC800100A40EA0E662696369E379BCDF890C0CF
:102AD8004FEA1E2C4CEA026CB20842EA837E980840
:102AE8002A9ACDF89CE040EA8676DDF8A4E028969C
:102AF800560A46EACE5076462990760A2D98099BC2
:102B080046EAC2522E9E2A92420E42EAC6122B92E0
:102B1800720E42EAC0162C963998389EC20D4FEABA
:102B2800D65E4EEA402E42EA46203B9A2D903A98CD
:102B3800960046EA90762E96860046EA9276DDE979
:102B4800020222EA00025A400192069B049A23EAF2
:102B58000202119B5A40039B029221EA030242405F
:102B680003920246059822EA000220EA0B00484038
:102B78002BEA0101079081EA030082EA0B0B069B0E
:102B880005900898CDF824B0DDF810B00F9A20EA27
:102B9800030080EA0B0004902BEA0200DDF828B05D
:102BA80022EA0B01089A51402BEA02025A400B9B79
:102BB800069280EA0B0B25EA0402CDF828B082EAD7
:102BC800030B0891CDF82CB0DDE90D1B0C982BEA0E
:102BD800010282EA000B109ACDF830B022EA050211
:102BE80082EA040BCDF834B024EA030423EA090B83
:102BF800109B8BEA030B29EA0303CDF844B083EA60
:102C0800050BCDF83CB084EA090BCDF84CB0129D09
:102C18000E9CDDF8509025EA040B20EA09028BEAA5
:102C2800010BCDF838B082EA050BCDF848B029EA97
:102C3800050B21EA00038BEA040B1999179C159AD6
:102C48001898CDF840B083EA090BDDF86890169B18
:102C5800CDF850B021EA040585EA020B29EA0005FF
:102C6800CDF854B085EA030B28EA0105CDF8BCB0CD
:102C780085EA040BCDF858B022EA070B24EA0205CE
:102C88008BEA080B1B9CCDF868B027EA080888EA8D
:102C9800010BCDF860B085EA070B24EA0905CDF8E9
:102CA80070B085EA000B1D9DCDF85CB023EA0502E3
:102CB80082EA040B25EA040220EA0300CDF86CB08E
:102CC80082EA090BCDF864B0DDF888901E9CDDF827
:102CD8008C80219F1F9980EA050B209DCDF874B048
:102CE80029EA050080EA040B2AEA0903CDF878B03E
:102CF80083EA050BCDF87CB024EA0C0025EA040B26
:102D0800249D80EA0A042CEA0A0A25EA0803239487
:102D18008AEA090428EA070221948BEA0C0483EA68
:102D2800070C27EA01004A40CDF880C08C46269956
:102D3800259421EA050344462CEA010888EA050C93
:102D48005C40DDF8AC80279B229480EA0104299935
:102D5800CDF890C02EEA080028EA010C269480EAF3
:102D6800010408461946279421EA060484EA0E0459
:102D780026EA0E0E2A9F2A948CEA030C8EEA08048F
:102D880020EA0303289D2E99289483EA06042D9BA4
:102D9800DDF8B0902C9425EA010021EA030423EA27
:102DA800090A584027EA050684EA0903299386EAAE
:102DB80001032D9300993E4B2B9029EA070B8B4278
:102DC8008BEA050B8AEA070A7FF458A83F9B9146CD
:102DD800019A1A60029A5A60039A9A60049ADA6011
:102DE800059A1A61069A5A61079A9A61089ADA61ED
:102DF800099A1A620A9A5A620B9A9A620C9ADA62C9
:102E08000D9A1A630E9A5A630F9A9A63109ADA63A4
:102E1800119A1A64129A5A64139A9A64149ADA6480
:102E2800159A1A652F9A5A65169A9A65179ADA6545
:102E3800189A1A66199A5A661A9A9A661B9ADA663C
:102E48001C9A1A671D9A5A671E9AC3E91E291F9A67
:102E5800C3F88020209AC3F88420219AC3F88820D8
:102E6800229AC3F88C20239AC3F89020249AC3F896
:102E78009420259AC3F89820269AC3F8A4B0C3E9E9
:102E8800272C279AC3F8BC00C3E92A2A289AC3F832
:102E9800B020299AC3F8B4202A9AC3F8B8202C9AEB
:102EA800C3F8C0202D9AC3F8C42041B0BDE8F08F04
:102EB800084F00082DE9F84F0446D0F8C8001E4610
:102EC800D4F8CC308C461746821943F1000162458C
:102ED80071F100054AD365460246954231D000217A
:102EE80007F1FF3E8C46521843EB0C034FEAD20819
:102EF80048EA43781EF8019F54F8380002F00702A8
:102F0800D20004EBC80AA2F12003C2F1200B09FA8F
:102F180002F2504009FA03F3DAF8042044F83800C2
:102F280029FA0BFB43EA0B035340CAF80430D4E9EF
:102F380032230131A5EB02004CF1000C8842D2D8B3
:102F4800074400210020C4E93201521B20461644E0
:102F5800FEF71CFFD4E9322316EB020C43F1000103
:102F6800AC4571F10000B8D210466246002E53D02D
:102F7800C10841EA437100F00703DB003878A3F188
:102F88002002C3F1200C04EBC10500FA03F300FA98
:102F980002F220FA0CFC54F8310058406B6844F8EF
:102FA800310042EA0C025A40012E6A602FD006F125
:102FB800FF3CBC4401210022D4E93230CB1842EB5B
:102FC8000000DD0803F0070317F801EF45EA407534
:102FD800DB00A3F12009C3F1200004EBC5080EFAB9
:102FE80003F30EFA09F92EFA00F054F835E08EEAE8
:102FF800030ED8F8043044F835E0013149EA0000FE
:1030080042F1000258406745C8F80400D4D1D4E919
:103018003221B21841F10001C4E93221BDE8F88F2C
:103028002DE9F04F1546B3B08846C8220021064660
:103038009B46FDF793FC872DA6F1080488BF06F18F
:10304800800930D94346204693F805E019799A78E3
:1030580093F801C050F8087F93F800A041EA0E21C8
:1030680093F806E0120441EA0E4193F807E042EAB9
:103078000C2293F803C041EA0E6E42EA0A02416844
:1030880042EA0C627A4081EA0E014845C0E9002113
:1030980003F10803D8D13046883DFEF777FE872D27
:1030A80008F18808CED8882200216846FDF756FC2A
:1030B80025B141462A466846FDF7B6FB05F1C80327
:1030C8000DEB03056B4605F8C8BC9DF8872062F038
:1030D8007F028DF8872022AD9A78587993F801906D
:1030E800197954F8086F93F8008093F806E093F87C
:1030F80003C0DF79120441EA002142EA092260682C
:1031080042EA080241EA0E4142EA0C6241EA0761DA
:10311800083372404140AB42C4E90021DCD133B0EE
:10312800BDE8F08F38B50546D020FDF7C3F8286014
:1031380048B1C82200210446FDF710FC00220023F4
:10314800C4E9322338BD6F20FDF76AF813460068DA
:103158000A46A821FFF7AEBE0368D3E93221D0089A
:1031680040EA417002F0070230B5D20053F830400F
:1031780003EBC0054FF01F0CA2F12001C2F1200E95
:103188000CFA02F262400CFA01F16C6843F8302044
:103198002CFA0EFE41EA0E0161406960D3F8A420C2
:1031A8000020002102F10042C3E93201C3F8A42043
:1031B80030BD00BF2DE9F843166800296CD04D1EBC
:1031C800002200F1FF3C0544174629E0D3F1A8038B
:1031D8006EEB4E0E9B1847EB0E0EDC0844EA4E745D
:1031E80006EBC40E03F00703DEF8048056F83440FB
:1031F800DB00C3F12009A3F1200E08FA09F924FA2B
:1032080003F343EA090328FA0EFE43EA0E030CF817
:10321800013F531C47F1000765451C461A4640D03C
:10322800D6E9323E9A4277EB0E081446CED39B1A63
:103238006EEB070705190C1BC6E932372CD0304650
:10324800FEF7A4FD6F1E002201E0A82A26D022F076
:1032580007014FEAD20C314402F007034868D9004D
:1032680056F83C30C1F1200EA1F1200CCB4000FAF9
:103278000EFE43EA0E0320FA0CFC013243EA0C036B
:10328800A24207F8013FE0D3C2F1A8030021A41A23
:10329800C6E932311544D2D1BDE8F8830023194676
:1032A800F5E7D6E9323E0027C1E700BF0068FDF721
:1032B80009B800BF38B50546D020FCF7FBFF2860E9
:1032C80048B1C82200210446FDF748FB002200232C
:1032D800C4E9322338BD6F20FCF7A2FF134600680B
:1032E8000A468821FFF7E6BD0368D3E93221D008F2
:1032F80040EA417002F0070230B5D20053F830407E
:1033080003EBC0054FF01F0CA2F12001C2F1200E03
:103318000CFA02F262400CFA01F16C6843F83020B2
:103328002CFA0EFE41EA0E0161406960D3F8842050
:103338000020002102F10042C3E93201C3F88420D1
:1033480030BD00BF2DE9F843166800296CD04D1E2A
:10335800002200F1FF3C0544174629E0D3F1880319
:103368006EEB4E0E9B1847EB0E0EDC0844EA4E74CB
:1033780006EBC40E03F00703DEF8048056F8344069
:10338800DB00C3F12009A3F1200E08FA09F924FA99
:1033980003F343EA090328FA0EFE43EA0E030CF886
:1033A800013F531C47F1000765451C461A4640D0AB
:1033B800D6E9323E9A4277EB0E081446CED39B1AD2
:1033C8006EEB070705190C1BC6E932372CD03046BF
:1033D800FEF7DCFC6F1E002201E0882A26D022F0CE
:1033E80007014FEAD20C314402F007034868D900BC
:1033F80056F83C30C1F1200EA1F1200CCB4000FA68
:103408000EFE43EA0E0320FA0CFC013243EA0C03D9
:10341800A24207F8013FE0D3C2F188030021A41AB1
:10342800C6E932311544D2D1BDE8F88300231946E4
:10343800F5E7D6E9323E0027C1E700BF0068FCF790
:1034480041BF00BF2DE9F04FA5B0504C01900F4689
:10345800C820A4FB071415469846FCF72BFF002844
:1034680000F09080424629461F23E6090446FFF7EC
:10347800D7FD872F3BD9DDF80490B246A4F10805A3
:1034880004F180082046FEF781FCAC4648465CF80B
:10349800082FDCF80430110A4FF0000E41EA0361EE
:1034A80062F3070E4FEA124B61F30F2E4BEA034B00
:1034B800120E42EA032200216BF3174E63F3070151
:1034C80062F31F6E1A0A62F30F211A0C62F3174196
:1034D8001B0E63F31F61E045C0F800E0416000F196
:1034E8000800D4D1BAF1010A09F18809CAD1DFF874
:1034F8009C80A8FB07384FEAD81808EB0818B7EBE8
:10350800C80805D1204625B0BDE8F04FFCF7DABE63
:103518002046FEF73BFCA4F1080C03AA0DF1940E1B
:103528005CF8081FDCF80430080A002540EA03604C
:1035380061F307050F0C60F30F2547EA0347090EEF
:1035480041EA0321002067F3174563F3070061F39D
:103558001F65190A61F30F20190C61F317401B0E40
:1035680063F31F6042F8045C42F8080B9645D7D114
:10357800019B06EB0616424602A903EBC600FDF7BF
:1035880053F9BFE76F20FCF74BFE00BFF1F0F0F0F6
:1035980038B5054600200C46FDF76CFAFDF734FAFD
:1035A8006CB1611E6C1E0D44FDF736FA4242D2B270
:1035B800C3B258BF534204F8013FAC42F4D10020D3
:1035C80038BD00BF002900F0648130B5C1B00A7869
:1035D8008DF803200021012304068DF800108DF8D2
:1035E80002308DF8010000F1BB804100CBB249B236
:1035F80000294FEA4303C0F2BE80D9B25BB2002B68
:10360800C0F2C0804900CBB249B20029C0F2C280E2
:103618005900CBB249B20029C0F2C4805900CBB2DC
:1036280049B20029C0F2C6805900CBB249B200297C
:10363800C0F2C8805900CBB249B200294FEA43030F
:10364800B8BF83F04D03DBB283F00101DB0940F022
:1036580018814900CBB249B20029C0F20C81590047
:10366800CBB249B20029C0F200815900CBB249B2AD
:103678000029C0F2F4805900CBB249B20029C0F247
:10368800E8805900CBB249B20029C0F2DC80590069
:10369800CBB249B20029C0F2D0805900CBB249B2AE
:1036A8005B000029B8BF83F04D03DBB25340190615
:1036B80000F1BD805900CBB249B20029C0F2B180F7
:1036C8005900CBB249B20029C0F2A5805900CBB24B
:1036D80049B20029C0F299805900CBB249B20029F9
:1036E800C0F28D805900CBB249B20029C0F2818066
:1036F8005900CBB249B2002975DB5900CBB249B2A7
:103708005B000029B8BF83F04D03DBB200218DF8C0
:1037180004308DF80510002863D101238DF800309E
:10372800002A55D1C3F103020DF803209DF8043097
:10373800002B40F0AC800323C3F104020DF80320F2
:1037480004239DF80520002A46D06C460DF1060595
:1037580014F8010B00F098FBAC42F9D141B030BD30
:1037680000FA03F383F04D0359B20029DBB24FEAA4
:103778004303BFF642AF83F04D014BB2002BC9B2F1
:10378800BFF640AF4B0083F04D0359B20029DBB2BE
:10379800BFF63EAF5B0083F04D0359B20029DBB2A0
:1037A800BFF63CAF5B0083F04D0359B20029DBB292
:1037B800BFF63AAF5B0083F04D0359B20029DBB284
:1037C800BFF638AF5B0083F04D0359B2DBB234E784
:1037D8009DF80420002AAFD0C3F105020DF803209C
:1037E800B3E70B469CE75B0083F04D0359B2DBB2AD
:1037F80086E75B0083F04D0359B2DBB27BE75B00E1
:1038080083F04D0359B2DBB26FE75B0083F04D03E1
:1038180059B2DBB263E75B0083F04D0359B2DBB208
:1038280057E75B0083F04D0359B2DBB24BE75B000F
:1038380083F04D0359B2DBB23FE75B0083F04D03E1
:1038480059B2DBB22CE75B0083F04D0359B2DBB20F
:1038580020E75B0083F04D0359B2DBB214E75B004D
:1038680083F04D0359B2DBB208E75B0083F04D03E8
:1038780059B2DBB2FCE65B0083F04D0359B2DBB210
:10388800F0E64B0083F04D0359B2DBB2E4E60323C4
:1038980057E7704700B583B0032372200DF1070185
:1038A8008DF80730FFF78EFE002003B05DF804FBAB
:1038B80010B5154C23680F2B1BDC03EB430204EBFC
:1038C800820276200133114910710F2B4FF000004E
:1038D800C2E90201236012DC03EB430204EB82021B
:1038E80077200B49107101330020C2E902012360DF
:1038F80010BD612000F0C8FA23680F2BECDDBDE88D
:103908001040612000F0C0BA7C1700209D380008E4
:10391800C53C000810B50E4C23680F2B0DDCFF29A1
:1039280010D803EB430C04EB8C0C01338CF8040027
:10393800CCE902122360002010BD612000F0A4FA37
:10394800012010BD622000F09FFA012010BD00BFC9
:103958007C1700202DE9F04FC3B0002302AD8DF88D
:1039680007302C4603AE00F07BFA04F8010B002860
:103978003DD0A642F7D12C780022032C2A7008D813
:103988000CB906E02BB12B5D2A551C44E4B2032C7C
:10399800F8D9DFF8B481D8F800100029D8BF00277B
:1039A80039DD002368781F4602E08B421F4632DA71
:1039B80007EB470208EB8202013312798242DBB23D
:1039C800F3D1EB780533A3421ADB0DF10B0B4FF063
:1039D800040904E0EB78043353450CDBD14600F0CE
:1039E8003FFA09F1010A0BF8010F0028F2D105236B
:1039F8008DF8073007E000F033FA05F80A0080B1C7
:103A080004238DF807300DF107016520FFF7DAFD73
:103A180043B0BDE8F08F8F42D3D101238DF8073032
:103A2800F1E7C4F101015FFA8AFA2B5D2855514488
:103A3800C9B299422C440AD94BB1844600E032B14C
:103A4800E25C04F803C01344DBB29942F7D80AF1E8
:103A5800FF3A55FA8AF40DF1090129E05A00D3B268
:103A680052B2002A31DB5A00D3B252B2002A33DBF9
:103A78005A00D3B252B2002A35DB5A00D3B252B23E
:103A8800002A37DB5A00D3B252B2002A39DB5A0077
:103A9800D3B252B2002A4FEA43033BDBD8B25BB23F
:103AA8004000002BB8BF80F04D008C42C0B236D029
:103AB80011F8013B58400206C3B2CFD55B0083F032
:103AC8004D035AB2002ADBB2CDDA5B0083F04D0316
:103AD8005AB2002ADBB2CBDA5B0083F04D035AB24C
:103AE800002ADBB2C9DA5B0083F04D035AB2002A20
:103AF800DBB2C7DA5B0083F04D035AB2002ADBB2AF
:103B0800C5DA5B0083F04D035AB2002ADBB24FEAF4
:103B18004303C3DA83F04D0043B2C0B2C0E715F8DF
:103B28000930834203D002238DF807306BE707EB97
:103B3800470708EB8707EA78FC68A978687833466E
:103B4800A0478DF807005EE77C170020002A00F0E8
:103B5800A78070B5C0B000250C468DF800508DF8D0
:103B680001008DF80210002900F09B8011460DF12C
:103B780003002246FCF758FE611D631CFE2C04F16D
:103B8800030E04F1040CC9B2DBB200F091800233D9
:103B98000DEB03020DF10100002327E0DDB25BB25B
:103BA800002B31DB6B00DDB25BB2002B33DB6D0029
:103BB800EBB26DB2002D35DB5D00EBB26DB2002DBE
:103BC80037DB5D00EBB26DB2002D39DB5D00EBB287
:103BD8006DB2002D3BDB5D00EBB26DB25B00002DDA
:103BE800B8BF83F04D039042DBB236D010F8015BCA
:103BF8006B4013F0800F4FEA4303CFD083F04D059D
:103C08006BB2002BEDB2CDDA6D0085F04D056BB2CD
:103C1800002BEDB2CBDA6B0083F04D035DB2002DC3
:103C2800DBB2C9DA5B0083F04D035DB2002DDBB275
:103C3800C7DA5B0083F04D035DB2002DDBB2C5DA55
:103C48005B0083F04D035DB2002DDBB2C3DA5B008D
:103C580083F04D035DB2DBB2C0E70DF80E300129E9
:103C68004FF000030DF80C300ED96A4600200123EE
:103C780012F8016F5D1CA3EB000C16B90DF800C01B
:103C88001846EBB28B42F3D10DF105036D461C4487
:103C980015F8010B00F0F8F8AC42F9D140B070BD4E
:103CA800704701234FF0040C05214FF0030E6EE717
:103CB8000DF80E5003210DF80C50D6E710B50D4C39
:103CC800217884B079B100231A4602EB420004EB54
:103CD8008000103201336A44DBB2007902F8100C1C
:103CE8008B421A46F1DB72206A46FFF72FFF00204D
:103CF80004B010BD7C17002030B595B00324012214
:103D080002204FF480034FF4A025CDE90E03CDE93E
:103D180008450B920C24C4210422072308A8CDE9E6
:103D28001041CDE9122300F0C1F800B1FEE70446C6
:103D380001210F20CDE9020100220023214602A81B
:103D4800CDE90423069400F0C9FA094B01945A6B93
:103D5800084842F040025A635B6B074A026003F06E
:103D680040030193019B447100F00EFE15B030BD75
:103D780000380240401800200008065030B50122E3
:103D880089B04FF4C06002210223CDE90201CDE9D8
:103D98000423174D174800240723009406932B6B20
:103DA80043F001032B632B6B03F0010302A900937B
:103DB800009B00F061FB01946A6C0F4B42F010020B
:103DC8006A646A6CDC6102F010020192019A4FF495
:103DD80061310C22A5F5943503F10C00C3E90351B8
:103DE800C3E90544C3E9082400F07CFC09B030BDF0
:103DF80000380240000002404018002030B589B069
:103E08000D4B0E48002201921A6B42F001021A6310
:103E18001B6B03F00103019300224FF4805401252A
:103E2800022302A9CDE90423CDE90245019B00F054
:103E380023FB09B030BD00BF00380240000002403B
:103E4800024801224FF4805100F048BC00000240B3
:103E5800024800224FF4805100F040BC00000240AC
:103E680010B5084C82B041F2883301220DF10701E8
:103E7800204600F003FD0028F5D19DF8070002B0A8
:103E880010BD00BF4C18002000B583B0844641F235
:103E9800883301220DF1070103488DF807C000F0AF
:103EA8009FFC03B05DF804FB4C180020F0B40168D7
:103EB800CF0782B032D5944A936803F00C03042BE1
:103EC80000F00881936803F00C03082B00F0FE80D3
:103ED8004568B5F5803F00F03281B5F5A02F00F0B8
:103EE8008781894E336823F480333360336823F441
:103EF80080233360002D40F02781844B844F1A685B
:103F0800174401321A6004E00132BA424FF0010549
:103F180055D03468A403F7D405B11A608A0733D59D
:103F2800794B9A6812F00C0F00F0E2809A6802F060
:103F38000C02082A00F0D880C268002A00F04081EC
:103F4800744A724B012111601A686F49541C1C6035
:103F58000C68A6070AD40D68AD0702F1020404D460
:103F680009688F0702F1030428D51C60664CF82203
:103F7800216892FAA2F20369B2FA82F2934021F020
:103F8800F8021343236001680F0736D54269DAB98E
:103F980060495E4BC1F8802E1A685B49541C1C604E
:103FA8004C6FA60740F12E814D6FAD0702F1020458
:103FB80021D5496F890702F103041CD50432032077
:103FC8001A6002B0F0BC7047524A504B0121C2F847
:103FD800801E1A684C49541C1C604C6FA60700F1DF
:103FE80011814D6FAD0702F1020404D4496F8F07A8
:103FF80002F10304E2D501681C604F0741D5424B2A
:10400800454C002201921A6C42F080521A641B6CD3
:1040180003F080530193019B22683C4B42F4807269
:10402800226019684A1C1A602568EE0500F1A38011
:104038002568ED0501F1020200F19C802468E40581
:1040480001F1030200F1968004311960032002B0E7
:10405800F0BC70472C4C216F41F001012167511CC5
:1040680002F59C52284D19600A32002604E00131FD
:104078008A424FF00106A2D02C6FA707F7D506B1E8
:1040880019608369F3B1204DAA6802F00C02082A6E
:1040980035D0022B1F4A1D4B00F0B6800024146651
:1040A8001868421C00F5F4101A6000F2824004E01F
:1040B800013282424FF0010481D029688901F7D486
:1040C80004B11A60002002B0F0BC704753685E0269
:1040D8007FF5FEAE0C4B1B689D037FF51FAF436851
:1040E800002B7FF41BAF0AE05B685B023FF524AF4F
:1040F800054B1B689F0711D5C368012B0ED0012003
:1041080002B0F0BC704700BF00380240DC18002045
:1041180002E1F50500004742007000406B4DF823AE
:104128002C6893FAA3F3B3FA83F2036924F0F80432
:10413800934023430F072B607FF55FAF26E7634A61
:10414800136843F480331360614B624D1C685F4F02
:10415800621C1A602544002605E00132AA424FF08D
:1041680001063FF42CAF3C68A403F6D5002E7FF47B
:10417800D4AED3E61A608568012D3FF46BAF052DE8
:1041880000F09780514E316F21F001013167316F96
:1041980021F004013167002D7FF461AF511C02F555
:1041A8009C5219600A3204E0013191424FF0010536
:1041B8007CD0346FA407F7D4002D7FF461AF60E79B
:1041C8004549434B0A601A684049541C1C600C68F6
:1041D800A60778D50D68AD0702F1020405D5096870
:1041E800890702F103043FF5E9AE01681C60CBE6DC
:1041F800364B1A6842F480221A601A6842F48032F8
:104208001A60A1E70168F8E6002616661C68621CB9
:1042180004F5F4141A6004F2824405E00132A24263
:104228004FF001063FF4CBAE29688F01F6D406B1F2
:104238001A6047F6C07595FAA5F54FF44031B5FAFE
:1042480085F591FAA1F14FF07064B1FA81F194FA11
:10425800A4F4826A5208013A02FA01F1D0E9072669
:104268003243466AC06A06FA05F5B4FA84F42A436A
:10427800A0400A43154C18490243012062600866B1
:104288001868421C00F5F4101A6000F282400025FC
:1042980005E0013282424FF001053FF490AE2168FB
:1042A8008E01F6D5002D7FF40CAF0BE719600320C3
:1042B800CDE606490C6F44F004040C670C6F44F01B
:1042C80001040C67CBE601685EE600BF00380240D7
:1042D800DC18002002E1F50500004742634A136834
:1042E80003F00F038B4208D2CBB21370136803F0AC
:1042F8000F038B4201D0012070470368F0B59E0779
:1043080006D55B4C8568A26822F0F0022A43A260B9
:10431800DD0727D54468012C6DD0A21E012A49D992
:10432800534D2A6896072AD5AA68524E22F00302EE
:104338001443AC6037687A1C4FF0000C41F2883E99
:104348003260FF4306E00132BC1874454FF0010C9F
:1043580000F28880AC6814F00C0FF4D1BCF1000FA7
:1043680000D03260414C226802F00F028A4209D91B
:10437800CBB22370236803F00F038B4201D00120D6
:10438800F0BD03685A0706D53949C4688A6822F41B
:10439800E05222438A6013F0080309D0344A0169C5
:1043A800936823F4604343EAC10300209360F0BD9F
:1043B8001846F0BD2E4F3A689201E0D5BA682D4EE6
:1043C80022F003022243BA603568022C05F101028B
:1043D800326036D105F59C550A354FF0000C04E0E3
:1043E800013295424FF0010C28D0BC6804F00C044F
:1043F800082CF5D1B2E71E4F3A689403BFD5BA68C6
:104408001C4E22F0030242F00102BA6035686C1CAF
:1044180005F59C554FF0000C34600A3504E0013472
:10442800A5424FF0010C09D0BA6802F00C02042A28
:10443800F5D1BCF1000F95D0346093E735600320C7
:10444800F0BD05F59C550A354FF0000C04E001322B
:1044580095424FF0010CF1D0BC6804F00C040C2C10
:10446800F5D17BE732600320F0BD00BF003C02407D
:1044780000380240DC1800202DE9F04F00230D68B9
:10448800DFF834828D4F83B003E00133102B00F046
:10449800A58001229A4032EA050402EA050CF4D10B
:1044A8004E6826F01009B9F1020F00F09A80D0F892
:1044B80000B04FEA430E032404FA0EF406F0030A90
:1044C8002BEA040B09F1FF390AFA0EFA4AEA0B0A39
:1044D800B9F1010F6FEA0404C0F800A040F2AA8005
:1044E800C26814408A6802FA0EF22243C260F200DF
:1044F800CBD500220192D8F8442042F48042C8F873
:104508004420D8F8442002F480420192019A23F012
:10451800030202F1804202F59C3203F00309D2F84B
:1045280008E04FEA89090F2404FA09F42EEA040482
:10453800DFF88CE1704529D00EF5806E704500F0EB
:104548009080DFF880E1704500F09280DFF878E134
:10455800704500F09480DFF874E1704500F09680B3
:10456800DFF86CE1704500F09880DFF868E170458D
:1045780000F09A80DFF860E170450CBF4FF0070E3D
:104588004FF0080E0EFA09F944EA090494603A68F3
:104598006FEA0C0EF40354BF0EEA02024CEA020260
:1045A8003A607C68B20354BF0EEA04044CEA04047F
:1045B8007C60BC68F20254BF0EEA04044CEA0404AE
:1045C800BC60FA68B40203F1010354BF0EEA0202A8
:1045D8004CEA0202102BFA607FF45BAF03B0BDE82F
:1045E800F08F4FEAD30E00EB8E0E0C69DEF820A098
:1045F80003F007094FEA89094FF00F0B04FA09F491
:104608000BFA09F92AEA090944EA0904CEF8204014
:10461800D0F800A04FEA430E032404FA0EF406F083
:1046280003092AEA040A09FA0EF949EA0A09E443DD
:10463800C0F80090D0F808A0D1F80C9004EA0A0A53
:1046480009FA0EF949EA0A09C0F80890D0F8049066
:1046580029EA0209C6F300129A4042EA09024260B6
:104668003EE74FF0010E0EFA09F944EA09048DE716
:104678004FF0020E0EFA09F944EA090486E74FF0F2
:10468800030E0EFA09F944EA09047FE74FF0040E15
:104698000EFA09F944EA090478E74FF0050E0EFA14
:1046A80009F944EA090471E74FF0060E0EFA09F910
:1046B80044EA09046AE700BF00380240003C0140B0
:1046C8000000024000080240000C024000100240B6
:1046D8000014024000180240001C024002B90904FC
:1046E80081617047002875D030B490F839200346AE
:1046F80002F0FF01002A50D01A68DC681D692421E5
:1047080083F83910D16821F40051D1601069996893
:1047180020F4405020431061D068DC6929435D696A
:1047280020F41640294320F00C0021430143D160B6
:104738005169986921F440710143B4F5004F516102
:104748002ED05868244C25498000B1FBF0F1A4FB19
:10475800015040094FF0640C0CFB10110901323173
:10476800A4FB0141000100EB51119160116921F492
:1047780090411161516921F02A015161D1680024E9
:104788004FF0200C41F40051D160DC6383F839C04C
:1047980083F83AC0204630BC704780F83810ABE741
:1047A8005C680D4D0D486400B0FBF4F0A5FB0014E7
:1047B8006409642101FB1401C9003231A5FB010120
:1047C800C1F34210090900EB041001F4F871014427
:1047D8009160CBE7012070471F85EB51906EFB0A73
:1047E80090F83930202B42D100293ED0002A3CD005
:1047F80090F83830012B3AD010B421230024C46338
:1048080080F83930C284C38C828401249BB280F83A
:104818003840002B2FD084680268C38C013B9BB2C0
:10482800B4F5805FC38415D013681B06FCD511F856
:10483800013B5360C38C9BB2002BEED113685B061F
:10484800FCD50023202280F8392080F8383010BCAD
:104858001846704713681B06FCD50B88C3F308037A
:10486800536003692BB90231E4E701207047022045
:1048780070470131DEE70268E0E700BF90F83A30A0
:10488800202B5CD1002952D0002A50D090F8383023
:10489800012B54D010B422230024C46380F83A308A
:1048A800C285C38D828501249BB280F83840ABB1A4
:1048B800C38D8268013B9BB2B2F5805FC3850268F5
:1048C80015D013689C06FCD50369002B31D15368B9
:1048D80001F8013BC38D9BB2002BE9D100232022B4
:1048E80080F83A2080F8383010BC184670471368B2
:1048F8009B06FCD5046953681CBBC3F3080321F865
:10490800023BC38D9BB2002BE8D0C38D013B9BB209
:10491800C38513689B06FCD5536894B9C3F3080391
:1049280021F8023BC38D9BB2002BEED1D6E70120C4
:104938007047536803F07F0301F8013BCAE7022080
:104948007047DBB221F8013BDBE700BF0B4A08B533
:104958000346106828B1034469468B4207D81360A0
:1049680008BD07481060034469468B42F7D9FBF736
:1049780051FC0C2303604FF0FF3008BDE018002005
:1049880020190020704700BFC0B110B50379012B72
:10499800044615D0437903F0FF025BB12268022375
:1049A80063711368002043F00403012113606171EF
:1049B800207110BD0271FFF7E5FFEFE70120704796
:1049C800022010BD002103E00B4B5B58435004311B
:1049D8000A480B4B42189A42F6D30A4A02E00023CF
:1049E80013600432084B9A42F9D3AFF30080FBF707
:1049F8003DFCFCF733FBFEE7184F000800000020E1
:104A080040080020400800201C190020FEE7000094
:104A1800024B13B10248FBF7F7BB704700000000D8
:104A280049020008F8B500BFF8BC08BC9E467047AC
:0C4A3800F8B500BFF8BC08BC9E467047F3
:104A480000000000F76400000231D8FF0315F8FFEA
:104A5800449E03001821F4FF28A1F2FF241E07003A
:104A68002BDE1B002BE92300AD84FAFF7F14E0FF47
:104A7800759A2F0009FBD3FF497A2F0027E52800F4
:104A88005896290070A00F00A485EFFF88B736005C
:104A9800909DF7FFA0EAEEFF68F927007BD3DFFFC0
:104AA800D6ADDFFFE71AC5FFF7A4EAFF98FCCDFFF4
:104AB80035D01A0022B4FFFF01323D00C54504007D
:104AC800674A290020760100CDF42E00C5DE3500A6
:104AD80003A5E6FF2C30C9FFD447D9FFAFBE3B0082
:104AE8008515C5FF7C8ED1FF968A3600413ED4FFDE
:104AF800000436004D6AFBFF9CD623005DC5F7FF16
:104B08003D12E6FFD6EAE6FF1E7E350059AFC5FF27
:104B18003F8435001756DFFF5C94E7FF8C7338003D
:104B2800A8630C009A1B0800768F0E0053383B00D0
:104B380034853B0030FCD8FF549D1F002D4FD5FF16
:104B4800E506C4FF81ACE8FFCFE1C7FF1998D1FFA4
:104B58005DD6E9FFEE093500C7352100BBCFE7FF79
:104B680075CFECFF72971D0072B0C1FFF6BCF0FF65
:104B78008052CFFFAED2CFFFE090C8FFCAEF01004E
:104B8800F210340085FEF0FF38C620009F6E290021
:104B9800A3B7D2FF4BA4C7FF6DBAF9FF0934DAFFF8
:104BA80082C2F5FF1341EDFF3BA6FFFFF709ECFFBB
:104BB800DD2BFAFFD495140063451C00622CEAFF34
:104BC800E9FBCCFFF00A040017C4070088452F0052
:104BD80000AD0000BE36EFFF44CD0D005A673C0023
:104BE800CA2BC7FF7EDEFFFF48391900C069CEFF18
:104BF8006C752400DFC7FCFFA1980B0008E8EBFFE9
:104C08006CE4020008C8C9FFC2363000F6BFE3FFF3
:104C1800933CDBFFE04AFDFF051314009277140074
:104C2800259E1300E0D0E7FF4499F3FF0208EAFF4E
:104C3800A2EED1FF9CC7C4FF57A0C8FFD9973A007E
:104C480093EA1F005AFF3300D4582300F8413A0072
:104C580072FFCCFFFB3D22009FABDAFF22A4C9FF05
:104C6800F512040087252500F024EDFF5D9B350033
:104C7800A048CAFFFCA2C6FF56BBEDFFDE45CFFF2A
:104C88005EBE0D001A5E1C00E6E00D005A7F0C00A7
:104C9800838F07008A62E7FF0457FFFFFC06F8FFCF
:104CA8002100F6FFF65AD0FF84001F0086EF30007F
:104CB8007DB9C9FFD6FCF7FF9245F4FFC221C9FFB1
:104CC800193905000C61040041CDDAFF1BB03E0024
:104CD800E77234003B00CDFFC77C1A00241903009B
:104CE800E55E2B00991129003A7AD8FF714D13001F
:104CF8001CE13D008409130051F02500465A1800B4
:104D08001885C6FFBE1413009138280090DBC9FF30
:104D18008950D2FF3F851C004B0B1D00A6F6EFFF04
:104D2800BEA8EBFF1BE112003E5ECDFF2F2DEAFF70
:104D3800E41DF9FFC7061400837232006E0DE2FF0E
:104D48005379ECFF99401D007825D9FFAD05EBFF9D
:104D580005E41600E7DB0B00E81D2200CFF833005E
:104D680034B9F7FF0CCAD4FFF87FE6FF57D1E3FF49
:104D78001B91D8FF122CC7FFD81009001F5EC6FF71
:104D88005846E1FF8B1D2500B77325008F7CFDFF7A
:104D980098DD1D0098683300BBD40200A793EDFF8F
:104DA800BE6CCFFF1C7C020008AA180071FD2D0004
:104DB800A55C0C009A37190067A1C7FF3D8CE4FF7A
:104DC8003CA1D1FF39C5350015013B00C01D0400C9
:104DD800F7C42100F41BF1FFE7351A000E34070071
:104DE800457DF9FFD04C1A00AE7CE4FF68261D0013
:104DF800988EE6FF3326EFFFDA05FCFFDB7FC5FF61
:104E08006427D3FFAFE1DDFFDD93F9FF091DDDFF67
:104E180093CC02000518F1FF2A9C1800A9E5C9FFE8
:104E2800508AF7FF2CCF3B004E43FFFFDF36EBFFE6
:104E3800CA153C00685E1500B616F3FFCE291E00A1
:104E48000100000000000000828000000000000057
:104E58008A80000000000080008000800000008040
:104E68008B800000000000000100008000000000AE
:104E78008180008000000080098000000000008020
:104E88008A00000000000000880000000000000008
:104E980009800080000000000A0000800000000077
:104EA8008B800080000000008B0000000000008064
:104EB800898000000000008003800000000000805E
:104EC80002800000000000808000000000000080D8
:104ED8000A800000000000000A0000800000008036
:104EE8008180008000000080808000000000008039
:104EF80001000080000000000880008000000080A1
:044F0800080000207D
:084F0C00194A0008F101000838
:044F1400C9010008C7
:104F1800080000200000000000000000F40200204B
:104F28005C030020C4030020000000000000000013
:104F38000000000000000000000000000000000069
:104F48000000000000000000000000000000000059
:104F58000000000000000000000000000000000049
:104F68000000000000000000000000000000000039
:104F78000000000000000000000000000000000029
:104F88000000000000000000000000000000000019
:104F98000000000000000000000000000000000009
:104FA80000000000000000000000000000000000F9
:104FB80000000000000000000000000000000000E9
:104FC80001000000000000000E33CDAB34126DE686
:104FD800ECDE05000B0000000000000000000000EF
:104FE80000000000000000000000000000000000B9
:104FF80000000000000000000000000000000000A9
:105008000000000000000000000000000000000098
:105018000000000000000000000000000000000088
:1053480000000000000000003004002030040020AD
:1053580038040020380400204004002040040020C5
:105368004804002048040020500400205004002075
:105378005804002058040020600400206004002025
:1053880068040020680400207004002070040020D5
:105398007804002078040020800400208004002085
:1053A8008804002088040020900400209004002035
:1053B8009804002098040020A0040020A0040020E5
:1053C800A8040020A8040020B0040020B004002095
:1053D800B8040020B8040020C0040020C004002045
:1053E800C8040020C8040020D0040020D0040020F5
:1053F800D8040020D8040020E0040020E0040020A5
:10540800E8040020E8040020F0040020F004002054
:10541800F8040020F8040020000500200005002002
:1054280008050020080500201005002010050020B0
:105438001805002018050020200500202005002060
:105448002805002028050020300500203005002010
:1054580038050020380500204005002040050020C0
:105468004805002048050020500500205005002070
:105478005805002058050020600500206005002020
:1054880068050020680500207005002070050020D0
:105498007805002078050020800500208005002080
:1054A8008805002088050020900500209005002030
:1054B8009805002098050020A0050020A0050020E0
:1054C800A8050020A8050020B0050020B005002090
:1054D800B8050020B8050020C0050020C005002040
:1054E800C8050020C8050020D0050020D0050020F0
:1054F800D8050020D8050020E0050020E0050020A0
:10550800E8050020E8050020F0050020F00500204F
:10551800F8050020F80500200006002000060020FD
:1055280008060020080600201006002010060020AB
:10553800180600201806002020060020200600205B
:10554800280600202806002030060020300600200B
:1055580038060020380600204006002040060020BB
:10556800480600204806002050060020500600206B
:10557800580600205806002060060020600600201B
:1055880068060020680600207006002070060020CB
:10559800780600207806002080060020800600207B
:1055A800880600208806002090060020900600202B
:1055B8009806002098060020A0060020A0060020DB
:1055C800A8060020A8060020B0060020B00600208B
:1055D800B8060020B8060020C0060020C00600203B
:1055E800C8060020C8060020D0060020D0060020EB
:1055F800D8060020D8060020E0060020E00600209B
:10560800E8060020E8060020F0060020F00600204A
:10561800F8060020F80600200007002000070020F8
:1056280008070020080700201007002010070020A6
:105638001807002018070020200700202007002056
:105648002807002028070020300700203007002006
:1056580038070020380700204007002040070020B6
:105668004807002048070020500700205007002066
:105678005807002058070020600700206007002016
:1056880068070020680700207007002070070020C6
:105698007807002078070020800700208007002076
:1056A8008807002088070020900700209007002026
:1056B8009807002098070020A0070020A0070020D6
:1056C800A8070020A8070020B0070020B007002086
:1056D800B8070020B8070020C0070020C007002036
:1056E800C8070020C8070020D0070020D0070020E6
:1056F800D8070020D8070020E0070020E007002096
:10570800E8070020E8070020F0070020F007002045
:10571800F8070020F80700200008002000080020F3
:1057280008080020080800201008002010080020A1
:105738001808002018080020200800202008002051
:105748002808002028080020FFFFFFFF00000200B3
:04000005080049CDD9
:00000001FF
